:1000000012C048C096C028C027C026C025C077C1EE
:100010004DC122C021C020C01FC01EC01DC01CC0B9
:100020001BC01AC09AC011241FBECFEDCDBF10E077
:10003000A0E6B0E0E2E0F7E002C005900D92A23841
:10004000B107D9F720E0A2E8B0E001C01D92AB39BA
:10005000B207E1F77BD153C3D3CF96980895C498E4
:100060000895C0980895D99A88E893E128EC30E083
:10007000F9013197F1F70197D9F78B98939A8BB7DC
:1000800080688BBF0895D9988BB78F778BBF8B9A79
:10009000939A08951F920F920FB60F9211242F93E7
:1000A0003F934F935F936F937F938F939F93AF9300
:1000B00020918600309187004091880050918900FE
:1000C00060918A0070918B0080918C0090918D00DE
:1000D000A0E009D301F570918E0060918F005091DE
:1000E0009000409191003091920020919300909166
:1000F00094008091950070938600609387005093E0
:1001000088004093890030938A0020938B0090935D
:100110008C0080938D00AF919F918F917F916F9113
:100120005F914F913F912F910F900FBE0F901F90B5
:1001300018951F920F920FB60F9211248F939F93D1
:1001400081E090E090938500809384009F918F914F
:100150000F900FBE0F901F9018951F920F920FB621
:100160000F9211242F933F934F935F936F937F933D
:100170008F939F93AF9320918E0030918F00409189
:100180009000509191006091920070919300809145
:10019000940090919500A1E091D220938E0030932D
:1001A0008F00409390005093910060939200709361
:1001B00093008093940090939500AF919F918F91BD
:1001C0007F916F915F914F913F912F910F900FBE53
:1001D0000F901F90189512B883E389B988E98AB9FE
:1001E0008EE083B908955D9BFECF8CB908955F9B27
:1001F000FECF8CB1089590919A0080919900981744
:1002000089F02091990030E02F5F3F4F2F70332706
:10021000E0919900F0E0EF58FF4F80812093990022
:1002200090E0089580E091E00895E5DF811521E0F8
:100230009207D9F30895DFDF811521E09207D9F302
:1002400008952091980030E02F5F3F4F2F703327A3
:10025000422F909197004917E1F3E0919800F0E068
:10026000EF59FF4F808320939800559A0895E9DF56
:1002700080E090E00895CF93DF93EC01899188238B
:1002800011F0DFDFFBCFDF91CF910895CF93DF93A4
:10029000EC01CE01FE012491222329F02196FC01DC
:1002A0008491CFDFF6CFDF91CF9108951F920F9207
:1002B0000FB60F9211248F939F93EF93FF9390911A
:1002C000980080919700981781F08091970090E0B6
:1002D00001968F709927E0919700F0E0EF59FF4F5A
:1002E00090819CB98093970001C05598FF91EF9140
:1002F0009F918F910F900FBE0F901F9018951F9296
:100300000F920FB60F9211242F938F939F93EF9319
:10031000FF9380919A0090E001968F709927209129
:100320009900281749F0E0919A00F0E09CB1EF584D
:10033000FF4F908380939A00FF91EF919F918F914F
:100340002F910F900FBE0F901F90189504B603FECB
:1003500007C084B7877F84BF81B5886181BD11BC28
:100360001BBA8AB383608ABB18BA87B3876187BB1D
:10037000BB9886E088BB12BA88E581BB84E182BB6A
:1003800015BE80E48BBF85B78F7A85BF81B5886144
:1003900081BD86E481BD789476DE969A80ED97E003
:1003A00028EC30E0F9013197F1F70197D9F7C49AB9
:1003B00080ED97E028EC30E0F9013197F1F70197F3
:1003C000D9F74BDEC09A80ED97E028EC30E0F901D8
:1003D0003197F1F70197D9F742DE80ED97E028ECED
:1003E00030E0F9013197F1F70197D9F73ADE949AA5
:1003F0004ADED89884E0582E90E2892E9EE4992E09
:1004000044244394C8ECD0E022E0322E38E7632E37
:10041000712C20918E0030918F004091900050916E
:10042000910060919200709193008091940090915E
:100430009500A0908600B0908700C0908800D09072
:100440008900E0908A00F0908B0000918C00109160
:100450008D0040D1A3E047D189F080F01092860052
:1004600010928700109288001092890010928A00E2
:1004700010928B0010928C0010928D00809196004B
:10048000823009F480C028F4882351F0813091F043
:100490000DC1833009F49DC0843009F4C0C006C189
:1004A000969AC49AC09AB39BA1C040929600DBDD95
:1004B000D89AFCC0869AD3DDD4DDB39910C0949845
:1004C000D89888E893E1FE013197F1F70197D9F7C1
:1004D000309296007092830060928200E7C0209173
:1004E000860030918700409188005091890060918A
:1004F0008A0070918B0080918C0090918D00A0E01B
:10050000F2D009F4D3C020918E0030918F00409139
:1005100090005091910060919200709193008091B1
:10052000940090919500A0908600B0908700C090B4
:100530008800D0908900E0908A00F0908B000091B4
:100540008C0010918D00C6D0A1E0CDD011F008F044
:10055000ADC0109286001092870010928800109211
:10056000890010928A0010928B0010928C001092D9
:100570008D009498D89888E893E1FE013197F1F7BF
:100580000197D9F7A5CF80918200909183000197C0
:10059000909383008093820018161906ACF4109291
:1005A00086001092870010928800109289001092A5
:1005B0008A0010928B0010928C0010928D004DDDFD
:1005C000B49A4FDD859B72C0949A83E08093960025
:1005D0006DC0809182009091830001979093830079
:1005E000809382001816190624F04DDD5092960073
:1005F0005DC01092860010928700109288001092C1
:10060000890010928A0010928B0010928C00109238
:100610008D0023DD24DDB09A859948C0E6CF969AF7
:10062000C4010197F1F719DD1ADD1BDD2091860069
:1006300030918700409188005091890060918A0034
:1006400070918B0080918C0090918D00A0E04BD038
:1006500069F1109286001092870010928800109223
:10066000890010928A0010928B0010928C001092D8
:100670008D00B39B1BC0F7DCD89A4092960088E8A7
:1006800093E1FE013197F1F70197D9F710928600B7
:1006900010928700109288001092890010928A00B0
:1006A00010928B0010928C0010928D0085B78062A2
:1006B00085BF889585B78F7D85BFABCE0024A7FD0C
:1006C00000942A0F301D401D501D601D701D801D9F
:1006D000901D08952A193B094C095D096E097F098F
:1006E000800B910B08950024A7FD00942A17300574
:1006F0004005500560057005800590050895F89443
:02070000FFCF29
:1007020001787878787878787878787878787878DE
:100712007878787878787878787878787878787857
:0207220078005D
:00000001FF
